:0E0A2900C1020425414B33330421400CCCCDD7
:10085F00C200120A381209B3120A8175807720007C
:10086F0039120A79BF2A18E4F508120A7974292572
:10087F0008F8A6070508E508C3940B40EDD2007FE2
:10088F002A120A71E4F50874292508F8E6FF120AFE
:10089F00710508E508C3940B40ED3000C11206B393
:1008AF00A202920185241185231085220F85210E26
:1008BF00751200751300751429AF28AE27AD26AC3D
:1008CF00251205847B007A00792912078DA20292E6
:1008DF000185241185231085220F85210EAF28AEA7
:1008EF0027AD26AC251204257F2A120A71C20002F9
:0208FF00086D82
:0A0A5400EF1F70011E144E70F72210
:1006B300E4F50AF50BF528F527F526F525F50C7471
:1006C30029250CF8E6FB642E6021AE0AAF0B7C00F3
:1006D3007D0A1203B08E0A8F0BEB24D0FFE434FFA4
:1006E300FEEF250BF50BEE350AF50A050CE50CB408
:1006F30005CDAC0AAD0BE41201B18F288E278D26F0
:100703008C257B0A7AD77923783C1200068F288EB2
:10071300278D268C25E52E24D0D394004004D202C5
:100723008002C202E4F524F523F522F521F50AF54A
:100733000BF50C742F250CF8E6FB642E6021AE0A32
:10074300AF0B7C007D0A1203B08E0A8F0BEB24D013
:10075300FFE434FFFEEF250BF50BEE350AF50A0532
:100763000CE50CB405CDAC0AAD0BE41201B18F243A
:100773008E238D228C217B0A7AD77923783C120031
:09078300068F248E238D228C21A7
:01078C00224A
:070A8100D288D2A8D2AF22F7
:03000300020A5E90
:0A0A5E00C2AF3089FDC289D2AF3269
:1009D100008000C000400060002000300010009046
:0A09E1007714B3B6D4E6EF34F7F64E
:080425008F0D8E0C8D0B8C0A6B
:10042D007BC37AF57948784012010FE4FBFA7934F1
:10043D007843120006E4FBFA79B4783D12010F12ED
:10044D0001EA8E128F13AB11AA10A90FA80EAF0DD2
:10045D00AE0CAD0BAC0A12010F8F178E168D158CCD
:10046D0014C004C005C006C007AC12AD13E41201E0
:10047D00B1A804A905AA06AB07D007D006D005D0B0
:10048D000412010F8F178E168D158C14E4F518F5C7
:10049D0019C3E5199513E51895124003020583302C
:1004AD00013BE5195407B4080040030205439004CD
:1004BD00C2F82828730204DA0204DC0204DE020406
:1004CD00E00204E20204E40204E60204E88036805D
:1004DD0039803C803F804280458048804BE51954EF
:1004ED0007B4080050509004FAF828287302053517
:1004FD0002053002052B02052602052102051C020C
:10050D0005170205129009D180219009D3801C9006
:10051D0009D580179009D780129009D9800D9009BF
:10052D00DB80089009DD80039009DF740193FFE5FE
:10053D00A0540F4FF5A0E518540F45197014E51888
:10054D00C4540F7E0024E1F582EE3409F583E49363
:10055D00F5807F007E407D1C7C46AB17AA16A91541
:10056D00A8141200061201EA1209EB0519E519701B
:06057D0002051802049EB5
:010583002255
:1009EB008E1A8F1BE51B151B7002151A14451A6006
:0709FB0005120A6880EE22DC
:080A68007F037E0DDEFEDFFAC4
:010A70002263
:0D0A47006172633A006469723A00763A0009
:1009B3007F38120A187F0C120A187F06120A187F52
:0E09C30001120A187F80120A187FC8020A0863
:100A1800C2A0C2A3120A02D2A07F05120A08C2A06D
:010A280022AB
:10098D00C3950EFFE49400AB0AAA0BA90C8F82F558
:05099D0083120361FF5D
:1009A200C2A0D2A3120A02D2A07F05120A08C2A0D4
:0109B2002222
:06078D008B0A8A0B890CA7
:10079300E4F50DF50E780F7C00FD7BFF7A0A7947AF
:1007A300FE7F0512033B78147C007D007BFF7A0AF1
:1007B300794C7E007F0512033B78197C007D007B1A
:1007C300FF7A0A79517E007F0312033B7480250D63
:1007D300F50DFF120A18E4F50E740F250EF8E6FF67
:1007E3001209A2050EE50EC3940440EDE4F50E7460
:1007F3000412098D050EE50EC3940540F2E50D24A0
:100803000BFF120A18E4F50E7414250EF8E6FF1216
:1008130009A2050EE50EC3940440EDAB0AAA0BA989
:100823000C90000512099EE4F50D74C0250DF50D1D
:10083300FF120A18E4F50E7419250EF8E6FF1209E3
:10084300A2050EE50EC3940240EDE4F50E740A1200
:0B085300098D050EE50EC3940540F270
:01085E002277
:060A0200C2A18F907F32BB
:0F0A0800EFD394004009E4FE0EBE02FC1F80F104
:010A170022BC
:080584008F0D8E0C8D0B8C0A0B
:10058C00E4F515F516FFFE7DC87C42AB0DAA0CA94F
:10059C000BA80A1200061201EA8E158F16E4F51745
:1005AC00F518E518640245177013AB12AA13A914B9
:1005BC00851882851783742E12038E802CAE15AF8E
:1005CC00167C007D0A1203C2ED2430AB12AA13A9CB
:1005DC001485188285178312038EAE15AF167C0016
:1005EC007D0A1203C28E158F160518E518700205C8
:1005FC00176405451770AB300119AB12AA13A91477
:10060C000518E518AE177002051714F5828E837461
:10061C00538017AB12AA13A9140518E518AE17705E
:10062C0002051714F5828E83744E12038EE4F515B1
:10063C00F516FFFE7DC87C42AB11AA10A90FA80EBF
:10064C001200061201EA8E158F16C3E518940BE5FD
:10065C001794005051E518640845177013AB12AA93
:10066C0013A914851882851783742E12038E802C7F
:10067C00AE15AF167C007D0A1203C2ED2430AB120E
:10068C00AA13A91485188285178312038EAE15AF91
:10069C00167C007D0A1203C28E158F160518E518FC
:0606AC0070A8051780A4F0
:0106B2002225
:0F0A3800758920758BFD758DFD759850D28E22B6
:080A71008F993099FDC2992212
:070A79003098FDAF99C2980F
:010A80002253
:10000600EC4D6011E8497017ED33EC3304600DE4F4
:10001600FCFFFEFD22E933E8330470F802025612B3
:10002600022158046009E4CC2481500628500902B4
:10003600026028400302025DC0E0EB4A7044B980CA
:1000460006D0E0FB02024CEF4E701CBD8008EBFFB1
:10005600EAFEE9FD80EBE98DF0A4FEE5F00200EF93
:10006600E9CDF9EAFEEBFFEF89F0A4FCE5F0CE89D5
:10007600F0A42EFFE435F0CD89F0A42DFEE435F092
:100086008067EF4E7005BD80D780C3EF8BF0A4ACC0
:10009600F0EE8BF0A42CFCE435F0F8EF8AF0A42CFB
:1000A600E5F038FCE433CB8DF0A42CFCE5F03BF80E
:1000B600EE8AF0A42CFCE5F038F8E433CF89F0A4FE
:1000C6002CFCE5F038CF3400CE89F0A42FFFE5F004
:1000D6003EFEE433C98DF0A42EFEE5F039CD8AF05C
:1000E600A42FFFE5F03EFEE43DFD33D0E0FB5007D4
:1000F6000BBB000F020260EC2CFCEF33FFEE33FE6D
:06010600ED33FD0202389A
:10010C00020260EC5D046005E859047003020256BB
:10011C00120221580460F6EC4860F2EC7004FDFE0B
:10012C00FF22C860DB2481C85009C39860025006C6
:10013C0002025D9850CAF582E9294B4A7005AB82E0
:10014C0002024C75F0007C1A7880C3EF9BEE9AED9E
:10015C0099400DC3EF9BFFEE9AFEED99FDE842F03E
:10016C00DC23ACF0D0E0FFD0E0FED0E0FDAB822091
:10017C00E7101BEB60BAEC2CFCEF33FFEE33FEED1B
:10018C0033FD020238E803F830E705C0F075F000E3
:10019C00EF2FFFEE33FEED33FD40B830E7C280AAFF
:1001AC0075F020800E75F010800575F0087D007ECE
:1001BC00007F003392D530D503120417EC33401076
:1001CC00EF33FFEE33FEED33FDEC33FCD5F0ED22D7
:0E01DC00E5F0247EA2D513CC92E7CDCEFF2213
:1001EA00EDD2E7CD33EC3392D524814006E4FFFE0D
:1001FA00FDFC22FCE4CFCECDCC24E0501174FF806C
:10020A00EDC3CC13CCCD13CDCE13CECF13CF047008
:07021A00F030D5DE020417ED
:10022100E9D2E7C933E833F892D5EDD2E7CD33EC23
:0702310033FC5002B2D5229C
:10023800EC30E7100FBF000C0EBE00080DBD000427
:100248000BEB6014A2D5EB13FCED92E7FD2274FFD3
:10025800FCFDFEFF22E480F8A2D574FF13FC7D802C
:03026800E480EF40
:03000000020901F1
:0C090100787FE4F6D8FD758133020948C8
:10026B00E709F608DFFA8046E709F208DFFA803E75
:10027B0088828C83E709F0A3DFFA8032E309F60862
:10028B00DFFA8078E309F208DFFA807088828C83CA
:10029B00E309F0A3DFFA806489828A83E0A3F6087E
:1002AB00DFFA805889828A83E0A3F208DFFA804C58
:1002BB0080D280FA80C680D4806980F2803380102F
:1002CB0080A680EA809A80A880DA80E280CA803398
:1002DB0089828A83ECFAE493A3C8C582C8CCC58310
:1002EB00CCF0A3C8C582C8CCC583CCDFE9DEE780E0
:1002FB000D89828A83E493A3F608DFF9ECFAA9F05F
:10030B00EDFB2289828A83ECFAE0A3C8C582C8CCB4
:10031B00C583CCF0A3C8C582C8CCC583CCDFEADECD
:10032B00E880DB89828A83E493A3F208DFF980CC2F
:10033B0088F0EF60010E4E60C388F0ED2402B40428
:10034B000050B9F582EB2402B4040050AF232345CF
:06035B0082239002BB7337
:10036100BB010CE58229F582E5833AF583E0225051
:1003710006E92582F8E622BBFE06E92582F8E2229B
:0D038100E58229F582E5833AF583E49322B5
:10038E00F8BB010DE58229F582E5833AF583E8F0A5
:10039E00225006E92582C8F622BBFE05E92582C851
:0203AE00F22239
:1003B000EF8DF0A4A8F0CF8CF0A428CE8DF0A42E61
:0203C000FE221B
:1003C200BC000BBE0029EF8DF084FFADF022E4CC1F
:1003D200F875F008EF2FFFEE33FEEC33FCEE9DECE8
:1003E200984005FCEE9DFE0FD5F0E9E4CEFD22ED2E
:1003F200F8F5F0EE8420D21CFEADF075F008EF2F78
:10040200FFED33FD4007985006D5F0F222C398FD68
:050412000FD5F0EA2205
:0E041700C3E49FFFE49EFEE49DFDE49CFC22F6
:10090D0002085FE493A3F8E493A34003F68001F299
:10091D0008DFF48029E493A3F85407240CC8C333EB
:10092D00C4540F4420C8834004F456800146F6DFBA
:10093D00E4800B0102040810204080900A29E47E17
:10094D00019360BCA3FF543F30E509541FFEE493AF
:10095D00A360010ECF54C025E060A840B8E493A376
:10096D00FAE493A3F8E493A3C8C582C8CAC583CAA1
:10097D00F0A3C8C582C8CAC583CADFE9DEE780BE59
:010A370000BE
:00000001FF
